:020000040000FA
:10000000000080311E2808007E1480310B1F1C2840
:100010004E0199188F1C1328410145088A00440895
:100020000A0080311C2819180F1C1C2841014308A4
:100030008A0042080A0080317E100900400103084E
:10004000A000803123282C30840087308500603068
:1000500086000130870010308F31F3278031A030C7
:100060008400003085002C308F31ED278031203026
:1000700084000130850040308F31ED277E10400133
:100080008531E32DFD0001304001A1000030A200C8
:100090007D0A4C28A135A20D890B4A28420122086D
:1000A00040012105A3004201230840012205A400CC
:1000B00023082404031D6228F4304101B800F43001
:1000C000B90008007D080139A100A10DA10DA10D05
:1000D0001A082106F73921069A007D360139A10058
:1000E000A10E1A082106EF3921069A007D08A10009
:1000F0000230A136890B792821080139A200A20E0D
:10010000A20D1A082206DF3922069A007D08B03EA9
:100110008600870101080319B4280030F000F100BF
:100120008F31B12780318F317D2780319D288F31EC
:1001300093278031003A0319A3288F319827803103
:10014000003A031997288F31802780318F31982703
:100150008031003A0319B428F6304101B800F63076
:10016000B9004E018C1208000030F000F100873118
:100170004B2780317D35243E860001308700403F8B
:100180004001A100413FA2000A30A135A20D890B18
:10019000C5280030A300FC30A40021082302F00091
:1001A0002208243BF1008F31B12780318F317D2728
:1001B00080318F31772780318F3174278031400132
:1001C0001815003240011811EE288F319827803120
:1001D000003A031DF42844018F1DF4288F318F2726
:1001E0008031003A0319E5288F31802780318F3123
:1001F0007A2780317D08B03E8600870181018631F3
:100200009A2680317108FC007008FB008F31982716
:100210008031003A03191B297B087C04031D162931
:10022000F2304101B800F230B9006A29F1304101E1
:10023000B800F13025298F318F278031003A03191A
:100240003129F5304101B800F530B90001304001E5
:10025000A1007D08B03E8600870121088100981624
:100260006A297C084101B9007B08B8007D35A03EB1
:1002700086008701403F4001A100413FA2007C0869
:100280002202031D45297B08210203184F297D35D1
:10029000A03E860087017B08C03F7C08C13F7D35BA
:1002A000603E860001308700403FA100413FA20030
:1002B00022087C02031D5E2921087B02031869299C
:1002C0007D35603E8600013087007B08C03F7C089A
:1002D000C13F98124E018C12101008004101C60156
:1002E00040011A158F31712781314001EE006E08EF
:1002F0004101CE004E0807394001EE006E08410171
:10030000CD00CE1F882909304001EE006E08B729C4
:100310004E08F039031D96294E084001EE000330C7
:10032000EE36890B90296E080139B529F0304E055B
:100330004001EE0010306E06031DAA2941014E084F
:100340004001EE000230EE36890BA3296E08033916
:10035000023EB52941014E084001EE000530EE365F
:10036000890BAF296E080339053EEF006F08410184
:10037000CC001D2A41014D08803142200800410176
:100380004E084001EE006E08F00041014D08873133
:100390007327080041014E084001EE006E08F0008E
:1003A00041014D088431C124080041014E0840013B
:1003B000EE006E08F00041014D088331C5230800AE
:1003C00041014E084001EE006E08AA0041014D08AF
:1003D00084310824080041014E084001EE006E08F7
:1003E000F00041014D0886311626080041014E08F3
:1003F0004001EE006E08F10041014D088631ED2606
:10040000080041014E084001EE006E08F000410175
:100410004D088F316627080041014E084001EE006B
:100420006E08F00041014D088F31B7270800F33006
:100430004101B800F330B90008004C084001EE005B
:10044000EF016F08003A0319262A172A6E08003AAE
:100450000319BA29013A0319BF29033A0319E029FC
:10046000013A0319012A073A03190C2A013A031920
:10047000172A033A0319CA29013A0319D5290F3A51
:100480000319F629013A0319EB29172A0800E0306D
:1004900041015405DC001F305505DD0000308B1B89
:1004A0000130DE005D085506031D582A5C0854061D
:1004B00003195C2AFF3008008B135508D20054083A
:1004C000D10086315A26823150011E131E159E1608
:1004D0004101DF01540850019A00410155085001C3
:1004E0009B0041015F08D800D901D835D90D5808C3
:1004F000560786005908573D8700010850019C00A7
:1005000041015F08D800D901D835D90D58085607E0
:1005100086005908573D8700403FDA00413FDB0025
:100520005B0850019D001F3041015F06031D9A2AA0
:1005300050019E12553050019F00AA309F009E141A
:100540000000000001304101D4070030D53D6400B7
:1005500001304101D8005808DF0720305F02031C3A
:100560006A2A50011E1141015E0C031C8B130318F3
:100570008B1700300800E03073054001A1001F30E8
:100580007405A20000308B1B0130A3002208740602
:10059000031DCC2A210873060319D02AFF30080056
:1005A0008B137408F1007308F0008631B82682318D
:1005B00050011E131E159E164001A4017308500120
:1005C0009A0074089B0040012408F700F801F735F1
:1005D000F80D7708750786007808763D87000108D2
:1005E00050019C0040012408F700F801F735F80D90
:1005F0007708750786007808763D8700403FF90048
:10060000413FFA007A0850019D001F304001240646
:10061000031D0C2B50019E12553050019F00AA3033
:100620009F009E14000000000130F3070030F43DED
:1006300064000130F70077084001A407203024024D
:10064000031CDE2A50011E114001230C031C8B13D6
:1006500003188B17003008008F31832783318F31C7
:10066000712783314101CF004F08C8008F31F9272E
:10067000833103183D2B02303E2B01304101CF0066
:100680004F08CA00672B8731F627833103184C2B9C
:1006900087317F278331522B87318A2783318F31EE
:1006A0006B2783314101C901772B8731E1278331E2
:1006B000031C632B87319527833102304101CF0022
:1006C0004F08C900772B8731AB278331522B4A085B
:1006D000CF00D0015008003A03196F2B772B4F0839
:1006E000013A0319432B033A0319552B772B490879
:1006F000CF004F08CA008F316827080040011A1147
:10070000201A842B9812852B981600304101D100B5
:10071000D2008731C02783318F318C27833141014B
:10072000D401D5018F31AC278331003A0319922BC4
:100730004E018C1203104001981E0314031CA32BBE
:1007400040019816A52B4001981203101A1D03149E
:10075000031CAD2B40011A15AF2B40011A110130BB
:100760004101D4070030D53D5508803AD300803090
:100770005302031DBD2B0A305402031C922B8731F8
:10078000FD27400198121A110800F5000230203EA2
:10079000860001308700403FF100413FF200750ABA
:1007A000D32BF236F10C890BD12B01307105F300FC
:1007B00000307205F40073084101B8007408B900F4
:1007C000F01D08000130F1000030F200750AEA2B3C
:1007D000F135F20D890BE82BF109F209710842019C
:1007E000A2057208A3057008F1000430F136890BE8
:1007F000F62B71080139F200F301750A012CF2356C
:10080000F30D890BFF2B7208A2047308A3040800E0
:1008100040012A080339AB002B08AD004101B801A3
:10082000B901312C8531382508002E30F000003018
:10083000F1008531732584312E30FB000030FC003F
:100840008731A02708002030F0000130F100853109
:10085000732508002030FB000130FC008731A02701
:10086000080040012D08AB00AC012C08003A031928
:100870003A2C482C2B08003A0319122C013A031980
:10088000152C033A0319232C013A03192A2C482C5E
:100890000800E0304101D1001F30D20086317A26B5
:1008A000843141015208E5005108E400003064053C
:1008B000E2003F306505E300620863040319672C1A
:1008C0002030E0000130E100873167270800E601B1
:1008D0006608E03ED1001F3003182030D200863178
:1008E0007A26843141016635203E8600013087003A
:1008F0005108C03F5208C13F0130E2006208E607DC
:100900002030660203180800682C20304101D30013
:100910000030D40051088600520887005308C03FB9
:100920005408C13FFF30D3000030D4005108860086
:100930005208870042315308C03F5408C13FD901D3
:100940000F30D3000030D4005908D500D601D5357A
:10095000D60D55085107D7005608523DD800570804
:1009600086005808870044315308C03F5408C13FEF
:100970000130D3005308D907083059020318080082
:10098000A02CF40070081039F1007108F300F01D7C
:10099000E52C4101B801B90173080319D72C74354E
:1009A000A03E860087010030C03FC13F0800FF30F5
:1009B000F100FF30F2007435603E860001308700A0
:1009C0007108C03F7208C13F080073080319F22C78
:1009D0007435A03E86008701403F4101B800413F89
:1009E000B90008007435603E860001308700403F42
:1009F0004101B800413FB90008002C304101D3004B
:100A00000330D4008731C927843187315A27843194
:100A100040308F31BD2784317F308F31C9278431F9
:100A200003304101D1000030D2008F31C32784311F
:100A3000A7304101D1000F30D2008F31E727843138
:100A4000E8304101D1000730D2008F31DB278431FB
:100A5000EF304101D1000730D2008F31CF278431F0
:100A600003304101D1000030D2008F31E12708006E
:100A7000E030F0001F30F1008631D4268531710856
:100A80004001A8007008A70000302705A5003F30EE
:100A90002805A600250826040319552D2030FB0043
:100AA0000130FC008731A0270800A9012908E03E99
:100AB000F0001F3003182030F1008631D426853134
:100AC00040012935203E8600013087007008C03F74
:100AD0007108C13F0130A5002508A907203029026F
:100AE00003180800562D2030F2000030F300700883
:100AF0008600710887007208C03F7308C13FFF304D
:100B0000F2000030F300700886007108870042315F
:100B10007208C03F7308C13FF8010F30F200003087
:100B2000F3007808F400F501F435F50D740870074A
:100B3000F6007508713DF700760886007708870093
:100B400044317208C03F7308C13F0130F20072089F
:100B5000F80708307802031808008D2D8731E12747
:100B60008531031CD12D8731D92785310318080021
:100B7000D12D39088F31A2270130F10071084101D0
:100B8000C607080038088F31A2270130F10071082C
:100B90004101C60740011A110800F0308F31A22729
:100BA000080041014608F100F2017208003A0319F9
:100BB000DA2DCD2D7108003A0319B92D013A031928
:100BC000C22DCD2D080087313C27853183317E230E
:100BD000853120304101D1000130D200843185249B
:100BE00085318431492485318431FD248531AE300D
:100BF0004101D1000530D2008F31E72785316E30B9
:100C00004101D1000130D2008F31DB278531420113
:100C100020358F31BD2785318F31862785318F3142
:100C2000892785318B170B176400142EF400700888
:100C3000F1000330F136890B1A2E71080F39F200DA
:100C40007208F3007435243E860001308700403F6F
:100C50004101B800413FB9007308F100F201743559
:100C6000243E8600013087007108C03F7208C13FF2
:100C70000800400198019A0113309200033094005B
:100C80007E01CE010330B800B901CF01BA01D00115
:100C90001F30BB003F30D1001530A00004307D0173
:100CA00093001030C50016307E01A10011307D0187
:100CB000C600080000308B1B01304101D3008B13AC
:100CC000510850019A004101520850019B001E1327
:100CD0001E161E1555309F00AA309F009E1400005E
:100CE000000050011E114101530C031C8B1303180B
:100CF0008B17080000308B1B01304101D3008B1390
:100D0000510850019A004101520850019B001E13E6
:100D10001E14000000004101530C031C8B13031828
:100D20008B1750011D084101D20050011C084101E0
:100D3000D100080044018E140C08F2007208FA0079
:100D40000D08F2007208F9007A08F200F301790840
:100D5000F400F5017408F500F40172087404F7005A
:100D600073087504F8007808F1007708F0000800AF
:100D700000308B1B0130F2008B13700850019A0079
:100D800071089B001E131E161E1555309F00AA30B9
:100D90009F009E140000000050011E11720C031CE5
:100DA0008B1303188B17080000308B1B0130F200E7
:100DB0008B13700850019A0071089B001E131E14BB
:100DC00000000000720C031C8B1303188B175001DA
:100DD0001D08F1001C08F00008008F316E278631D5
:100DE0008936F200F30172084101B8007308B900B6
:100DF0001F307105F200203072044201A000003063
:100E0000A10020358F319D270800D03044018F008C
:100E10009001023091008D018C010D084101E80024
:100E200044010C084101E7004E0110101330440149
:100E30008E00080073304B019F009D019C011D082E
:100E40004101EA004B011C084101E9004E018C12EE
:100E500010304B019E000800FF34FF34FF34FF3494
:100E6000FF34FF34FF34FF34FF34FF34FF34FF34EA
:100E7000FF34FF34FF34FF348731D1278731863187
:100E8000392687318731B627873187310527873162
:100E900087311A27080044010E1D552F0E107108C6
:100EA0008D0070088C000E14080071088D00700809
:100EB0008C0008004301901A080006304101D1005F
:100EC0005108430190048F01910190160800E03011
:100ED0004101D4001F30D5006108D7006008D6005A
:100EE000823147220800F1007135243E860001302E
:100EF0008700403F4101B800413FB900080041016F
:100F00003E083F04031908003F088A003E080A0013
:100F10008731080041013A083B04031908003B08E7
:100F20008A003A080A00873108004101400841045C
:100F30000319080041088A0040080A0087310800A8
:100F4000E030F3001F30F4007C08F6007B08F50069
:100F50008231BB22080041013C083D04031908000E
:100F60003D088A003C080A008731080062305101C0
:100F70008D008F01910102309300900192010800D1
:100F8000410152084B019D00410151084B019C0059
:100F9000080041015408D2005308D1008F31D527F1
:100FA00008004F0196019701980199019A019B0150
:100FB00008004301110E890C890C0139F000700CF6
:100FC000080043010F0E890C0139F000700C080075
:100FD0008F317127F00070084101C80008008F317F
:100FE0006E27F00070084101C70008004301100D92
:100FF000100D0139F000700C08004B019E13080021
:101ECC00010008004301101608004301911408009A
:101EDC0043010D08080043010C08080044018F154C
:101EEC00080044010E14080044010E1008004B01B8
:101EFC009E1708004B019E1308004E010F1008009E
:101F0C004301111408004E01191408004B019E17CF
:101F1C0008004E0110080139080044010F0C890C0F
:101F2C00013908004E010C0E890C01390800F00033
:101F3C00700843018D000800F000700843018C000C
:101F4C00080041014B088F31A22708004E010C0EEE
:101F5C00890C0139080071084B019D0070089C0028
:101F6C00080000304101B8000130B90008004101FF
:101F7C00D100510843018D00080041015208C500F1
:101F8C005108C40008004101D100510843018E00E2
:101F9C00080041015208BD005108BC000800410175
:101FAC005208C3005108C200080041015208C10088
:101FBC005108C000080041015208BB005108BA008A
:101FCC00080041015208BF005108BE00080064001F
:101FDC0080010131890BEE2F0034FE0012001E002F
:101FEC00FE0BF42F003443010F0C890C0139F00067
:081FFC00700C0800E0341F34F2
:020000040001F9
:0A000E00EC3FFF3FFF07FF3FFF3FFD
:00000001FF
